{
  "_format": "hh-sol-artifact-1",
  "contractName": "Swapper",
  "sourceName": "contracts/Swapper.sol",
  "abi": [
    {
      "inputs": [],
      "stateMutability": "nonpayable",
      "type": "constructor"
    },
    {
      "inputs": [],
      "name": "CToken",
      "outputs": [
        {
          "internalType": "contract IERC20",
          "name": "",
          "type": "address"
        }
      ],
      "stateMutability": "view",
      "type": "function"
    },
    {
      "inputs": [],
      "name": "CTokenPrice",
      "outputs": [
        {
          "internalType": "uint256",
          "name": "",
          "type": "uint256"
        }
      ],
      "stateMutability": "view",
      "type": "function"
    },
    {
      "inputs": [
        {
          "internalType": "uint256",
          "name": "amount",
          "type": "uint256"
        }
      ],
      "name": "calculateCTokenFromToken",
      "outputs": [
        {
          "internalType": "uint256",
          "name": "",
          "type": "uint256"
        }
      ],
      "stateMutability": "view",
      "type": "function"
    },
    {
      "inputs": [
        {
          "internalType": "uint256",
          "name": "amount",
          "type": "uint256"
        }
      ],
      "name": "calculateTokenFromCToken",
      "outputs": [
        {
          "internalType": "uint256",
          "name": "",
          "type": "uint256"
        }
      ],
      "stateMutability": "view",
      "type": "function"
    },
    {
      "inputs": [],
      "name": "getCTokenPrice",
      "outputs": [
        {
          "internalType": "uint256",
          "name": "",
          "type": "uint256"
        }
      ],
      "stateMutability": "view",
      "type": "function"
    },
    {
      "inputs": [],
      "name": "owner",
      "outputs": [
        {
          "internalType": "address",
          "name": "",
          "type": "address"
        }
      ],
      "stateMutability": "view",
      "type": "function"
    },
    {
      "inputs": [
        {
          "internalType": "uint256",
          "name": "price",
          "type": "uint256"
        }
      ],
      "name": "setCTokenPrice",
      "outputs": [],
      "stateMutability": "nonpayable",
      "type": "function"
    },
    {
      "inputs": [
        {
          "internalType": "address",
          "name": "token_",
          "type": "address"
        },
        {
          "internalType": "uint256",
          "name": "amount",
          "type": "uint256"
        }
      ],
      "name": "swap",
      "outputs": [],
      "stateMutability": "nonpayable",
      "type": "function"
    },
    {
      "inputs": [
        {
          "internalType": "address",
          "name": "token_",
          "type": "address"
        },
        {
          "internalType": "uint256",
          "name": "amount",
          "type": "uint256"
        }
      ],
      "name": "unswap",
      "outputs": [],
      "stateMutability": "nonpayable",
      "type": "function"
    }
  ],
  "bytecode": "0x608060405260016002553480156200001657600080fd5b50336000806101000a81548173ffffffffffffffffffffffffffffffffffffffff021916908373ffffffffffffffffffffffffffffffffffffffff160217905550306040516200006690620000d6565b620000729190620001da565b604051809103906000f0801580156200008f573d6000803e3d6000fd5b50600160006101000a81548173ffffffffffffffffffffffffffffffffffffffff021916908373ffffffffffffffffffffffffffffffffffffffff16021790555062000221565b611bab806200128a83390190565b600082825260208201905092915050565b7f5354430000000000000000000000000000000000000000000000000000000000600082015250565b60006200012d600383620000e4565b91506200013a82620000f5565b602082019050919050565b7f53776170706572546f6b656e4300000000000000000000000000000000000000600082015250565b60006200017d600d83620000e4565b91506200018a8262000145565b602082019050919050565b600073ffffffffffffffffffffffffffffffffffffffff82169050919050565b6000620001c28262000195565b9050919050565b620001d481620001b5565b82525050565b60006060820190508181036000830152620001f5816200011e565b905081810360208301526200020a816200016e565b90506200021b6040830184620001c9565b92915050565b61105980620002316000396000f3fe608060405234801561001057600080fd5b50600436106100925760003560e01c806388e4b3b31161006657806388e4b3b3146101215780638da5cb5b1461013d578063b1a7ee1c1461015b578063d004f0f71461018b578063d6372fc3146101a757610092565b8062399cd9146100975780633c9dd6ef146100b557806343c45885146100d357806382ae8517146100f1575b600080fd5b61009f6101c3565b6040516100ac9190610a22565b60405180910390f35b6100bd6101c9565b6040516100ca9190610a22565b60405180910390f35b6100db6101d3565b6040516100e89190610abc565b60405180910390f35b61010b60048036038101906101069190610b08565b6101f9565b6040516101189190610a22565b60405180910390f35b61013b60048036038101906101369190610b08565b610215565b005b6101456102ad565b6040516101529190610b56565b60405180910390f35b61017560048036038101906101709190610b08565b6102d1565b6040516101829190610a22565b60405180910390f35b6101a560048036038101906101a09190610b9d565b6102ed565b005b6101c160048036038101906101bc9190610b9d565b61067b565b005b60025481565b6000600254905090565b600160009054906101000a900473ffffffffffffffffffffffffffffffffffffffff1681565b60006102036101c9565b8261020e9190610c3b565b9050919050565b60008054906101000a900473ffffffffffffffffffffffffffffffffffffffff1673ffffffffffffffffffffffffffffffffffffffff163373ffffffffffffffffffffffffffffffffffffffff16146102a3576040517f08c379a000000000000000000000000000000000000000000000000000000000815260040161029a90610cc9565b60405180910390fd5b8060028190555050565b60008054906101000a900473ffffffffffffffffffffffffffffffffffffffff1681565b60006102db6101c9565b826102e69190610ce9565b9050919050565b60006102f8826101f9565b90506000839050828173ffffffffffffffffffffffffffffffffffffffff1663dd62ed3e33306040518363ffffffff1660e01b815260040161033b929190610d43565b60206040518083038186803b15801561035357600080fd5b505afa158015610367573d6000803e3d6000fd5b505050506040513d601f19601f8201168201806040525081019061038b9190610d81565b10156103cc576040517f08c379a00000000000000000000000000000000000000000000000000000000081526004016103c390610dfa565b60405180910390fd5b81600160009054906101000a900473ffffffffffffffffffffffffffffffffffffffff1673ffffffffffffffffffffffffffffffffffffffff166370a08231306040518263ffffffff1660e01b81526004016104289190610b56565b60206040518083038186803b15801561044057600080fd5b505afa158015610454573d6000803e3d6000fd5b505050506040513d601f19601f820116820180604052508101906104789190610d81565b10156104b9576040517f08c379a00000000000000000000000000000000000000000000000000000000081526004016104b090610e66565b60405180910390fd5b8073ffffffffffffffffffffffffffffffffffffffff166323b872dd3330866040518463ffffffff1660e01b81526004016104f693929190610e86565b602060405180830381600087803b15801561051057600080fd5b505af1158015610524573d6000803e3d6000fd5b505050506040513d601f19601f820116820180604052508101906105489190610ef5565b610587576040517f08c379a000000000000000000000000000000000000000000000000000000000815260040161057e90610f6e565b60405180910390fd5b600160009054906101000a900473ffffffffffffffffffffffffffffffffffffffff1673ffffffffffffffffffffffffffffffffffffffff1663a9059cbb33846040518363ffffffff1660e01b81526004016105e4929190610f8e565b602060405180830381600087803b1580156105fe57600080fd5b505af1158015610612573d6000803e3d6000fd5b505050506040513d601f19601f820116820180604052508101906106369190610ef5565b610675576040517f08c379a000000000000000000000000000000000000000000000000000000000815260040161066c90611003565b60405180910390fd5b50505050565b6000829050600061068b836102d1565b905082600160009054906101000a900473ffffffffffffffffffffffffffffffffffffffff1673ffffffffffffffffffffffffffffffffffffffff1663dd62ed3e33306040518363ffffffff1660e01b81526004016106eb929190610d43565b60206040518083038186803b15801561070357600080fd5b505afa158015610717573d6000803e3d6000fd5b505050506040513d601f19601f8201168201806040525081019061073b9190610d81565b101561077c576040517f08c379a000000000000000000000000000000000000000000000000000000000815260040161077390610dfa565b60405180910390fd5b808273ffffffffffffffffffffffffffffffffffffffff166370a08231306040518263ffffffff1660e01b81526004016107b69190610b56565b60206040518083038186803b1580156107ce57600080fd5b505afa1580156107e2573d6000803e3d6000fd5b505050506040513d601f19601f820116820180604052508101906108069190610d81565b1015610847576040517f08c379a000000000000000000000000000000000000000000000000000000000815260040161083e90610e66565b60405180910390fd5b600160009054906101000a900473ffffffffffffffffffffffffffffffffffffffff1673ffffffffffffffffffffffffffffffffffffffff166323b872dd3330866040518463ffffffff1660e01b81526004016108a693929190610e86565b602060405180830381600087803b1580156108c057600080fd5b505af11580156108d4573d6000803e3d6000fd5b505050506040513d601f19601f820116820180604052508101906108f89190610ef5565b610937576040517f08c379a000000000000000000000000000000000000000000000000000000000815260040161092e90610f6e565b60405180910390fd5b8173ffffffffffffffffffffffffffffffffffffffff1663a9059cbb33836040518363ffffffff1660e01b8152600401610972929190610f8e565b602060405180830381600087803b15801561098c57600080fd5b505af11580156109a0573d6000803e3d6000fd5b505050506040513d601f19601f820116820180604052508101906109c49190610ef5565b610a03576040517f08c379a00000000000000000000000000000000000000000000000000000000081526004016109fa90611003565b60405180910390fd5b50505050565b6000819050919050565b610a1c81610a09565b82525050565b6000602082019050610a376000830184610a13565b92915050565b600073ffffffffffffffffffffffffffffffffffffffff82169050919050565b6000819050919050565b6000610a82610a7d610a7884610a3d565b610a5d565b610a3d565b9050919050565b6000610a9482610a67565b9050919050565b6000610aa682610a89565b9050919050565b610ab681610a9b565b82525050565b6000602082019050610ad16000830184610aad565b92915050565b600080fd5b610ae581610a09565b8114610af057600080fd5b50565b600081359050610b0281610adc565b92915050565b600060208284031215610b1e57610b1d610ad7565b5b6000610b2c84828501610af3565b91505092915050565b6000610b4082610a3d565b9050919050565b610b5081610b35565b82525050565b6000602082019050610b6b6000830184610b47565b92915050565b610b7a81610b35565b8114610b8557600080fd5b50565b600081359050610b9781610b71565b92915050565b60008060408385031215610bb457610bb3610ad7565b5b6000610bc285828601610b88565b9250506020610bd385828601610af3565b9150509250929050565b7f4e487b7100000000000000000000000000000000000000000000000000000000600052601260045260246000fd5b7f4e487b7100000000000000000000000000000000000000000000000000000000600052601160045260246000fd5b6000610c4682610a09565b9150610c5183610a09565b925082610c6157610c60610bdd565b5b828204905092915050565b600082825260208201905092915050565b7f4e6f74206f776e65720000000000000000000000000000000000000000000000600082015250565b6000610cb3600983610c6c565b9150610cbe82610c7d565b602082019050919050565b60006020820190508181036000830152610ce281610ca6565b9050919050565b6000610cf482610a09565b9150610cff83610a09565b9250817fffffffffffffffffffffffffffffffffffffffffffffffffffffffffffffffff0483118215151615610d3857610d37610c0c565b5b828202905092915050565b6000604082019050610d586000830185610b47565b610d656020830184610b47565b9392505050565b600081519050610d7b81610adc565b92915050565b600060208284031215610d9757610d96610ad7565b5b6000610da584828501610d6c565b91505092915050565b7f496e73756666696369656e74205377617070657220616c6c6f77616e63650000600082015250565b6000610de4601e83610c6c565b9150610def82610dae565b602082019050919050565b60006020820190508181036000830152610e1381610dd7565b9050919050565b7f496e73756666696369656e7420616d6f756e74206f662043546f6b656e000000600082015250565b6000610e50601d83610c6c565b9150610e5b82610e1a565b602082019050919050565b60006020820190508181036000830152610e7f81610e43565b9050919050565b6000606082019050610e9b6000830186610b47565b610ea86020830185610b47565b610eb56040830184610a13565b949350505050565b60008115159050919050565b610ed281610ebd565b8114610edd57600080fd5b50565b600081519050610eef81610ec9565b92915050565b600060208284031215610f0b57610f0a610ad7565b5b6000610f1984828501610ee0565b91505092915050565b7f546f6b656e207472616e7366657220746f2053776170706572206572726f7200600082015250565b6000610f58601f83610c6c565b9150610f6382610f22565b602082019050919050565b60006020820190508181036000830152610f8781610f4b565b9050919050565b6000604082019050610fa36000830185610b47565b610fb06020830184610a13565b9392505050565b7f43546f6b656e207472616e7366657220746f2063616c6c6572206572726f7200600082015250565b6000610fed601f83610c6c565b9150610ff882610fb7565b602082019050919050565b6000602082019050818103600083015261101c81610fe0565b905091905056fea2646970667358221220b230c97469caf16fbf22fd53ae6cf9681684a4b79b5062fc3d0f95b698a1e10864736f6c6343000809003360806040523480156200001157600080fd5b5060405162001bab38038062001bab8339818101604052810190620000379190620004f0565b81838160039080519060200190620000519291906200023e565b5080600490805190602001906200006a9291906200023e565b50505060006200007f620000bd60201b60201c565b60ff16600a62000090919062000717565b6103e86200009f919062000768565b9050620000b38282620000c660201b60201c565b505050506200093c565b60006012905090565b600073ffffffffffffffffffffffffffffffffffffffff168273ffffffffffffffffffffffffffffffffffffffff16141562000139576040517f08c379a000000000000000000000000000000000000000000000000000000000815260040162000130906200082a565b60405180910390fd5b6200014d600083836200023460201b60201c565b80600260008282546200016191906200084c565b92505081905550806000808473ffffffffffffffffffffffffffffffffffffffff1673ffffffffffffffffffffffffffffffffffffffff168152602001908152602001600020600082825401925050819055508173ffffffffffffffffffffffffffffffffffffffff16600073ffffffffffffffffffffffffffffffffffffffff167fddf252ad1be2c89b69c2b068fc378daa952ba7f163c4a11628f55a4df523b3ef83604051620002149190620008ba565b60405180910390a362000230600083836200023960201b60201c565b5050565b505050565b505050565b8280546200024c9062000906565b90600052602060002090601f016020900481019282620002705760008555620002bc565b82601f106200028b57805160ff1916838001178555620002bc565b82800160010185558215620002bc579182015b82811115620002bb5782518255916020019190600101906200029e565b5b509050620002cb9190620002cf565b5090565b5b80821115620002ea576000816000905550600101620002d0565b5090565b6000604051905090565b600080fd5b600080fd5b600080fd5b600080fd5b6000601f19601f8301169050919050565b7f4e487b7100000000000000000000000000000000000000000000000000000000600052604160045260246000fd5b62000357826200030c565b810181811067ffffffffffffffff821117156200037957620003786200031d565b5b80604052505050565b60006200038e620002ee565b90506200039c82826200034c565b919050565b600067ffffffffffffffff821115620003bf57620003be6200031d565b5b620003ca826200030c565b9050602081019050919050565b60005b83811015620003f7578082015181840152602081019050620003da565b8381111562000407576000848401525b50505050565b6000620004246200041e84620003a1565b62000382565b90508281526020810184848401111562000443576200044262000307565b5b62000450848285620003d7565b509392505050565b600082601f83011262000470576200046f62000302565b5b8151620004828482602086016200040d565b91505092915050565b600073ffffffffffffffffffffffffffffffffffffffff82169050919050565b6000620004b8826200048b565b9050919050565b620004ca81620004ab565b8114620004d657600080fd5b50565b600081519050620004ea81620004bf565b92915050565b6000806000606084860312156200050c576200050b620002f8565b5b600084015167ffffffffffffffff8111156200052d576200052c620002fd565b5b6200053b8682870162000458565b935050602084015167ffffffffffffffff8111156200055f576200055e620002fd565b5b6200056d8682870162000458565b92505060406200058086828701620004d9565b9150509250925092565b7f4e487b7100000000000000000000000000000000000000000000000000000000600052601160045260246000fd5b60008160011c9050919050565b6000808291508390505b60018511156200061857808604811115620005f057620005ef6200058a565b5b6001851615620006005780820291505b80810290506200061085620005b9565b9450620005d0565b94509492505050565b60008262000633576001905062000706565b8162000643576000905062000706565b81600181146200065c576002811462000667576200069d565b600191505062000706565b60ff8411156200067c576200067b6200058a565b5b8360020a9150848211156200069657620006956200058a565b5b5062000706565b5060208310610133831016604e8410600b8410161715620006d75782820a905083811115620006d157620006d06200058a565b5b62000706565b620006e68484846001620005c6565b925090508184048111156200070057620006ff6200058a565b5b81810290505b9392505050565b6000819050919050565b600062000724826200070d565b915062000731836200070d565b9250620007607fffffffffffffffffffffffffffffffffffffffffffffffffffffffffffffffff848462000621565b905092915050565b600062000775826200070d565b915062000782836200070d565b9250817fffffffffffffffffffffffffffffffffffffffffffffffffffffffffffffffff0483118215151615620007be57620007bd6200058a565b5b828202905092915050565b600082825260208201905092915050565b7f45524332303a206d696e7420746f20746865207a65726f206164647265737300600082015250565b600062000812601f83620007c9565b91506200081f82620007da565b602082019050919050565b60006020820190508181036000830152620008458162000803565b9050919050565b600062000859826200070d565b915062000866836200070d565b9250827fffffffffffffffffffffffffffffffffffffffffffffffffffffffffffffffff038211156200089e576200089d6200058a565b5b828201905092915050565b620008b4816200070d565b82525050565b6000602082019050620008d16000830184620008a9565b92915050565b7f4e487b7100000000000000000000000000000000000000000000000000000000600052602260045260246000fd5b600060028204905060018216806200091f57607f821691505b60208210811415620009365762000935620008d7565b5b50919050565b61125f806200094c6000396000f3fe608060405234801561001057600080fd5b50600436106100a95760003560e01c80633950935111610071578063395093511461016857806370a082311461019857806395d89b41146101c8578063a457c2d7146101e6578063a9059cbb14610216578063dd62ed3e14610246576100a9565b806306fdde03146100ae578063095ea7b3146100cc57806318160ddd146100fc57806323b872dd1461011a578063313ce5671461014a575b600080fd5b6100b6610276565b6040516100c39190610b19565b60405180910390f35b6100e660048036038101906100e19190610bd4565b610308565b6040516100f39190610c2f565b60405180910390f35b61010461032b565b6040516101119190610c59565b60405180910390f35b610134600480360381019061012f9190610c74565b610335565b6040516101419190610c2f565b60405180910390f35b610152610364565b60405161015f9190610ce3565b60405180910390f35b610182600480360381019061017d9190610bd4565b61036d565b60405161018f9190610c2f565b60405180910390f35b6101b260048036038101906101ad9190610cfe565b6103a4565b6040516101bf9190610c59565b60405180910390f35b6101d06103ec565b6040516101dd9190610b19565b60405180910390f35b61020060048036038101906101fb9190610bd4565b61047e565b60405161020d9190610c2f565b60405180910390f35b610230600480360381019061022b9190610bd4565b6104f5565b60405161023d9190610c2f565b60405180910390f35b610260600480360381019061025b9190610d2b565b610518565b60405161026d9190610c59565b60405180910390f35b60606003805461028590610d9a565b80601f01602080910402602001604051908101604052809291908181526020018280546102b190610d9a565b80156102fe5780601f106102d3576101008083540402835291602001916102fe565b820191906000526020600020905b8154815290600101906020018083116102e157829003601f168201915b5050505050905090565b60008061031361059f565b90506103208185856105a7565b600191505092915050565b6000600254905090565b60008061034061059f565b905061034d858285610772565b6103588585856107fe565b60019150509392505050565b60006012905090565b60008061037861059f565b905061039981858561038a8589610518565b6103949190610dfb565b6105a7565b600191505092915050565b60008060008373ffffffffffffffffffffffffffffffffffffffff1673ffffffffffffffffffffffffffffffffffffffff168152602001908152602001600020549050919050565b6060600480546103fb90610d9a565b80601f016020809104026020016040519081016040528092919081815260200182805461042790610d9a565b80156104745780601f1061044957610100808354040283529160200191610474565b820191906000526020600020905b81548152906001019060200180831161045757829003601f168201915b5050505050905090565b60008061048961059f565b905060006104978286610518565b9050838110156104dc576040517f08c379a00000000000000000000000000000000000000000000000000000000081526004016104d390610ec3565b60405180910390fd5b6104e982868684036105a7565b60019250505092915050565b60008061050061059f565b905061050d8185856107fe565b600191505092915050565b6000600160008473ffffffffffffffffffffffffffffffffffffffff1673ffffffffffffffffffffffffffffffffffffffff16815260200190815260200160002060008373ffffffffffffffffffffffffffffffffffffffff1673ffffffffffffffffffffffffffffffffffffffff16815260200190815260200160002054905092915050565b600033905090565b600073ffffffffffffffffffffffffffffffffffffffff168373ffffffffffffffffffffffffffffffffffffffff161415610617576040517f08c379a000000000000000000000000000000000000000000000000000000000815260040161060e90610f55565b60405180910390fd5b600073ffffffffffffffffffffffffffffffffffffffff168273ffffffffffffffffffffffffffffffffffffffff161415610687576040517f08c379a000000000000000000000000000000000000000000000000000000000815260040161067e90610fe7565b60405180910390fd5b80600160008573ffffffffffffffffffffffffffffffffffffffff1673ffffffffffffffffffffffffffffffffffffffff16815260200190815260200160002060008473ffffffffffffffffffffffffffffffffffffffff1673ffffffffffffffffffffffffffffffffffffffff168152602001908152602001600020819055508173ffffffffffffffffffffffffffffffffffffffff168373ffffffffffffffffffffffffffffffffffffffff167f8c5be1e5ebec7d5bd14f71427d1e84f3dd0314c0f7b2291e5b200ac8c7c3b925836040516107659190610c59565b60405180910390a3505050565b600061077e8484610518565b90507fffffffffffffffffffffffffffffffffffffffffffffffffffffffffffffffff81146107f857818110156107ea576040517f08c379a00000000000000000000000000000000000000000000000000000000081526004016107e190611053565b60405180910390fd5b6107f784848484036105a7565b5b50505050565b600073ffffffffffffffffffffffffffffffffffffffff168373ffffffffffffffffffffffffffffffffffffffff16141561086e576040517f08c379a0000000000000000000000000000000000000000000000000000000008152600401610865906110e5565b60405180910390fd5b600073ffffffffffffffffffffffffffffffffffffffff168273ffffffffffffffffffffffffffffffffffffffff1614156108de576040517f08c379a00000000000000000000000000000000000000000000000000000000081526004016108d590611177565b60405180910390fd5b6108e9838383610a76565b60008060008573ffffffffffffffffffffffffffffffffffffffff1673ffffffffffffffffffffffffffffffffffffffff1681526020019081526020016000205490508181101561096f576040517f08c379a000000000000000000000000000000000000000000000000000000000815260040161096690611209565b60405180910390fd5b8181036000808673ffffffffffffffffffffffffffffffffffffffff1673ffffffffffffffffffffffffffffffffffffffff16815260200190815260200160002081905550816000808573ffffffffffffffffffffffffffffffffffffffff1673ffffffffffffffffffffffffffffffffffffffff168152602001908152602001600020600082825401925050819055508273ffffffffffffffffffffffffffffffffffffffff168473ffffffffffffffffffffffffffffffffffffffff167fddf252ad1be2c89b69c2b068fc378daa952ba7f163c4a11628f55a4df523b3ef84604051610a5d9190610c59565b60405180910390a3610a70848484610a7b565b50505050565b505050565b505050565b600081519050919050565b600082825260208201905092915050565b60005b83811015610aba578082015181840152602081019050610a9f565b83811115610ac9576000848401525b50505050565b6000601f19601f8301169050919050565b6000610aeb82610a80565b610af58185610a8b565b9350610b05818560208601610a9c565b610b0e81610acf565b840191505092915050565b60006020820190508181036000830152610b338184610ae0565b905092915050565b600080fd5b600073ffffffffffffffffffffffffffffffffffffffff82169050919050565b6000610b6b82610b40565b9050919050565b610b7b81610b60565b8114610b8657600080fd5b50565b600081359050610b9881610b72565b92915050565b6000819050919050565b610bb181610b9e565b8114610bbc57600080fd5b50565b600081359050610bce81610ba8565b92915050565b60008060408385031215610beb57610bea610b3b565b5b6000610bf985828601610b89565b9250506020610c0a85828601610bbf565b9150509250929050565b60008115159050919050565b610c2981610c14565b82525050565b6000602082019050610c446000830184610c20565b92915050565b610c5381610b9e565b82525050565b6000602082019050610c6e6000830184610c4a565b92915050565b600080600060608486031215610c8d57610c8c610b3b565b5b6000610c9b86828701610b89565b9350506020610cac86828701610b89565b9250506040610cbd86828701610bbf565b9150509250925092565b600060ff82169050919050565b610cdd81610cc7565b82525050565b6000602082019050610cf86000830184610cd4565b92915050565b600060208284031215610d1457610d13610b3b565b5b6000610d2284828501610b89565b91505092915050565b60008060408385031215610d4257610d41610b3b565b5b6000610d5085828601610b89565b9250506020610d6185828601610b89565b9150509250929050565b7f4e487b7100000000000000000000000000000000000000000000000000000000600052602260045260246000fd5b60006002820490506001821680610db257607f821691505b60208210811415610dc657610dc5610d6b565b5b50919050565b7f4e487b7100000000000000000000000000000000000000000000000000000000600052601160045260246000fd5b6000610e0682610b9e565b9150610e1183610b9e565b9250827fffffffffffffffffffffffffffffffffffffffffffffffffffffffffffffffff03821115610e4657610e45610dcc565b5b828201905092915050565b7f45524332303a2064656372656173656420616c6c6f77616e63652062656c6f7760008201527f207a65726f000000000000000000000000000000000000000000000000000000602082015250565b6000610ead602583610a8b565b9150610eb882610e51565b604082019050919050565b60006020820190508181036000830152610edc81610ea0565b9050919050565b7f45524332303a20617070726f76652066726f6d20746865207a65726f2061646460008201527f7265737300000000000000000000000000000000000000000000000000000000602082015250565b6000610f3f602483610a8b565b9150610f4a82610ee3565b604082019050919050565b60006020820190508181036000830152610f6e81610f32565b9050919050565b7f45524332303a20617070726f766520746f20746865207a65726f20616464726560008201527f7373000000000000000000000000000000000000000000000000000000000000602082015250565b6000610fd1602283610a8b565b9150610fdc82610f75565b604082019050919050565b6000602082019050818103600083015261100081610fc4565b9050919050565b7f45524332303a20696e73756666696369656e7420616c6c6f77616e6365000000600082015250565b600061103d601d83610a8b565b915061104882611007565b602082019050919050565b6000602082019050818103600083015261106c81611030565b9050919050565b7f45524332303a207472616e736665722066726f6d20746865207a65726f20616460008201527f6472657373000000000000000000000000000000000000000000000000000000602082015250565b60006110cf602583610a8b565b91506110da82611073565b604082019050919050565b600060208201905081810360008301526110fe816110c2565b9050919050565b7f45524332303a207472616e7366657220746f20746865207a65726f206164647260008201527f6573730000000000000000000000000000000000000000000000000000000000602082015250565b6000611161602383610a8b565b915061116c82611105565b604082019050919050565b6000602082019050818103600083015261119081611154565b9050919050565b7f45524332303a207472616e7366657220616d6f756e742065786365656473206260008201527f616c616e63650000000000000000000000000000000000000000000000000000602082015250565b60006111f3602683610a8b565b91506111fe82611197565b604082019050919050565b60006020820190508181036000830152611222816111e6565b905091905056fea2646970667358221220df4758f4893cf5166327fc48eb0e0c6505ed0d0d0eada63bf917e49931ae395564736f6c63430008090033",
  "linkReferences": {},
  "deployedLinkReferences": {}
}